{
    "_format": "hh-sol-artifact-1",
    "contractName": "Bridge",
    "sourceName": "contracts/Bridge.sol",
    "abi": [
        {
            "inputs": [
                {
                    "internalType": "address",
                    "name": "_validator",
                    "type": "address"
                },
                {
                    "internalType": "address",
                    "name": "_token",
                    "type": "address"
                },
                {
                    "internalType": "uint256",
                    "name": "_chainID",
                    "type": "uint256"
                }
            ],
            "stateMutability": "nonpayable",
            "type": "constructor"
        },
        {
            "anonymous": false,
            "inputs": [
                {
                    "indexed": false,
                    "internalType": "address",
                    "name": "from",
                    "type": "address"
                },
                {
                    "indexed": false,
                    "internalType": "address",
                    "name": "to",
                    "type": "address"
                },
                {
                    "indexed": false,
                    "internalType": "uint256",
                    "name": "amount",
                    "type": "uint256"
                },
                {
                    "indexed": false,
                    "internalType": "uint256",
                    "name": "nonce",
                    "type": "uint256"
                },
                {
                    "indexed": false,
                    "internalType": "uint256",
                    "name": "chainId",
                    "type": "uint256"
                },
                {
                    "indexed": false,
                    "internalType": "string",
                    "name": "symbol",
                    "type": "string"
                }
            ],
            "name": "RedeemInitialized",
            "type": "event"
        },
        {
            "anonymous": false,
            "inputs": [
                {
                    "indexed": false,
                    "internalType": "address",
                    "name": "from",
                    "type": "address"
                },
                {
                    "indexed": false,
                    "internalType": "address",
                    "name": "to",
                    "type": "address"
                },
                {
                    "indexed": false,
                    "internalType": "uint256",
                    "name": "amount",
                    "type": "uint256"
                },
                {
                    "indexed": false,
                    "internalType": "uint256",
                    "name": "nonce",
                    "type": "uint256"
                },
                {
                    "indexed": false,
                    "internalType": "uint256",
                    "name": "chainId",
                    "type": "uint256"
                },
                {
                    "indexed": false,
                    "internalType": "string",
                    "name": "symbol",
                    "type": "string"
                }
            ],
            "name": "SwapInitialized",
            "type": "event"
        },
        {
            "inputs": [],
            "name": "chainID",
            "outputs": [
                {
                    "internalType": "uint256",
                    "name": "",
                    "type": "uint256"
                }
            ],
            "stateMutability": "view",
            "type": "function"
        },
        {
            "inputs": [],
            "name": "facet",
            "outputs": [],
            "stateMutability": "nonpayable",
            "type": "function"
        },
        {
            "inputs": [
                {
                    "internalType": "address",
                    "name": "from",
                    "type": "address"
                },
                {
                    "internalType": "address",
                    "name": "to",
                    "type": "address"
                },
                {
                    "internalType": "uint256",
                    "name": "amount",
                    "type": "uint256"
                },
                {
                    "internalType": "uint256",
                    "name": "nonce",
                    "type": "uint256"
                },
                {
                    "internalType": "uint256",
                    "name": "_chainId",
                    "type": "uint256"
                },
                {
                    "internalType": "string",
                    "name": "symbol",
                    "type": "string"
                },
                {
                    "internalType": "bytes",
                    "name": "signature",
                    "type": "bytes"
                }
            ],
            "name": "redeem",
            "outputs": [],
            "stateMutability": "nonpayable",
            "type": "function"
        },
        {
            "inputs": [
                {
                    "internalType": "address",
                    "name": "",
                    "type": "address"
                }
            ],
            "name": "signatures",
            "outputs": [
                {
                    "internalType": "bytes",
                    "name": "",
                    "type": "bytes"
                }
            ],
            "stateMutability": "view",
            "type": "function"
        },
        {
            "inputs": [
                {
                    "internalType": "address",
                    "name": "to",
                    "type": "address"
                },
                {
                    "internalType": "uint256",
                    "name": "amount",
                    "type": "uint256"
                },
                {
                    "internalType": "uint256",
                    "name": "nonce",
                    "type": "uint256"
                },
                {
                    "internalType": "uint256",
                    "name": "chainId",
                    "type": "uint256"
                },
                {
                    "internalType": "string",
                    "name": "symbol",
                    "type": "string"
                }
            ],
            "name": "swap",
            "outputs": [],
            "stateMutability": "nonpayable",
            "type": "function"
        },
        {
            "inputs": [],
            "name": "token",
            "outputs": [
                {
                    "internalType": "address",
                    "name": "",
                    "type": "address"
                }
            ],
            "stateMutability": "view",
            "type": "function"
        },
        {
            "inputs": [],
            "name": "validator",
            "outputs": [
                {
                    "internalType": "address",
                    "name": "",
                    "type": "address"
                }
            ],
            "stateMutability": "view",
            "type": "function"
        }
    ],
    "bytecode": "0x60e06040523480156200001157600080fd5b5060405162001d4738038062001d47833981810160405281019062000037919062000155565b8273ffffffffffffffffffffffffffffffffffffffff1660808173ffffffffffffffffffffffffffffffffffffffff16815250508060a081815250508173ffffffffffffffffffffffffffffffffffffffff1660c08173ffffffffffffffffffffffffffffffffffffffff1681525050505050620001b1565b600080fd5b600073ffffffffffffffffffffffffffffffffffffffff82169050919050565b6000620000e282620000b5565b9050919050565b620000f481620000d5565b81146200010057600080fd5b50565b6000815190506200011481620000e9565b92915050565b6000819050919050565b6200012f816200011a565b81146200013b57600080fd5b50565b6000815190506200014f8162000124565b92915050565b600080600060608486031215620001715762000170620000b0565b5b6000620001818682870162000103565b9350506020620001948682870162000103565b9250506040620001a7868287016200013e565b9150509250925092565b60805160a05160c051611b2e6200021960003960008181610178015281816103df015281816105060152818161066301528181610832015261096901526000818161027401528181610602015261073a0152600081816104ba015261098f0152611b2e6000f3fe608060405234801561001057600080fd5b506004361061007d5760003560e01c8063adc879e91161005b578063adc879e9146100d8578063b6010cab146100f6578063c792f36d14610100578063fc0c546a146101305761007d565b806308a49480146100825780633a5381b51461009e57806361e2fb07146100bc575b600080fd5b61009c60048036038101906100979190610f81565b61014e565b005b6100a66104b8565b6040516100b3919061106e565b60405180910390f35b6100d660048036038101906100d19190611089565b6104dc565b005b6100e0610738565b6040516100ed919061112f565b60405180910390f35b6100fe61075c565b005b61011a6004803603810190610115919061114a565b6108c7565b60405161012791906111f6565b60405180910390f35b610138610967565b604051610145919061106e565b60405180910390f35b8280604051602001610160919061125f565b604051602081830303815290604052805190602001207f000000000000000000000000000000000000000000000000000000000000000073ffffffffffffffffffffffffffffffffffffffff166395d89b416040518163ffffffff1660e01b8152600401600060405180830381865afa1580156101e1573d6000803e3d6000fd5b505050506040513d6000823e3d601f19601f8201168201806040525081019061020a91906112e6565b60405160200161021a919061125f565b6040516020818303038152906040528051906020012014610270576040517f08c379a00000000000000000000000000000000000000000000000000000000081526004016102679061138c565b60405180910390fd5b84807f0000000000000000000000000000000000000000000000000000000000000000146102d3576040517f08c379a00000000000000000000000000000000000000000000000000000000081526004016102ca906113f8565b60405180910390fd5b60008a8a8a8a8a8a6040516020016102f096959493929190611481565b60405160208183030381529060405280519060200120905060008082815260200190815260200160002060009054906101000a900460ff1615610368576040517f08c379a000000000000000000000000000000000000000000000000000000000815260040161035f90611539565b60405180910390fd5b61037381868661098b565b6103b2576040517f08c379a00000000000000000000000000000000000000000000000000000000081526004016103a9906115a5565b60405180910390fd5b600160008083815260200190815260200160002060006101000a81548160ff0219169083151502179055507f000000000000000000000000000000000000000000000000000000000000000073ffffffffffffffffffffffffffffffffffffffff166340c10f198b8b6040518363ffffffff1660e01b81526004016104389291906115c5565b600060405180830381600087803b15801561045257600080fd5b505af1158015610466573d6000803e3d6000fd5b505050507f2c48bfef8a102cdd3371d078a93834f7df1ad34e9472f035dc2cf8cf8225a0a08b8b8b8b8b8b6040516104a396959493929190611627565b60405180910390a15050505050505050505050565b7f000000000000000000000000000000000000000000000000000000000000000081565b80806040516020016104ee919061125f565b604051602081830303815290604052805190602001207f000000000000000000000000000000000000000000000000000000000000000073ffffffffffffffffffffffffffffffffffffffff166395d89b416040518163ffffffff1660e01b8152600401600060405180830381865afa15801561056f573d6000803e3d6000fd5b505050506040513d6000823e3d601f19601f8201168201806040525081019061059891906112e6565b6040516020016105a8919061125f565b60405160208183030381529060405280519060200120146105fe576040517f08c379a00000000000000000000000000000000000000000000000000000000081526004016105f59061138c565b60405180910390fd5b82807f000000000000000000000000000000000000000000000000000000000000000014610661576040517f08c379a0000000000000000000000000000000000000000000000000000000008152600401610658906113f8565b60405180910390fd5b7f000000000000000000000000000000000000000000000000000000000000000073ffffffffffffffffffffffffffffffffffffffff16639dc29fac33886040518363ffffffff1660e01b81526004016106bc9291906115c5565b600060405180830381600087803b1580156106d657600080fd5b505af11580156106ea573d6000803e3d6000fd5b505050507f376fcc7448efc0c14fff917bf2b3823a24a75f0e12656990c80a71877a3eeeda33888888888860405161072796959493929190611627565b60405180910390a150505050505050565b7f000000000000000000000000000000000000000000000000000000000000000081565b620151804261076b91906116be565b600160003373ffffffffffffffffffffffffffffffffffffffff1673ffffffffffffffffffffffffffffffffffffffff1681526020019081526020016000205411156107ec576040517f08c379a00000000000000000000000000000000000000000000000000000000081526004016107e390611764565b60405180910390fd5b42600160003373ffffffffffffffffffffffffffffffffffffffff1673ffffffffffffffffffffffffffffffffffffffff168152602001908152602001600020819055507f000000000000000000000000000000000000000000000000000000000000000073ffffffffffffffffffffffffffffffffffffffff166340c10f1933670de0b6b3a76400006040518363ffffffff1660e01b81526004016108939291906117c9565b600060405180830381600087803b1580156108ad57600080fd5b505af11580156108c1573d6000803e3d6000fd5b50505050565b600260205280600052604060002060009150905080546108e690611821565b80601f016020809104026020016040519081016040528092919081815260200182805461091290611821565b801561095f5780601f106109345761010080835404028352916020019161095f565b820191906000526020600020905b81548152906001019060200180831161094257829003601f168201915b505050505081565b7f000000000000000000000000000000000000000000000000000000000000000081565b60007f000000000000000000000000000000000000000000000000000000000000000073ffffffffffffffffffffffffffffffffffffffff16610a2384848080601f016020809104026020016040519081016040528093929190818152602001838380828437600081840152601f19601f82011690508083019250505050505050610a1587610a43565b610a7390919063ffffffff16565b73ffffffffffffffffffffffffffffffffffffffff161490509392505050565b600081604051602001610a5691906118c9565b604051602081830303815290604052805190602001209050919050565b6000806000610a828585610a9a565b91509150610a8f81610aeb565b819250505092915050565b6000806041835103610adb5760008060006020860151925060408601519150606086015160001a9050610acf87828585610c51565b94509450505050610ae4565b60006002915091505b9250929050565b60006004811115610aff57610afe6118ef565b5b816004811115610b1257610b116118ef565b5b0315610c4e5760016004811115610b2c57610b2b6118ef565b5b816004811115610b3f57610b3e6118ef565b5b03610b7f576040517f08c379a0000000000000000000000000000000000000000000000000000000008152600401610b769061196a565b60405180910390fd5b60026004811115610b9357610b926118ef565b5b816004811115610ba657610ba56118ef565b5b03610be6576040517f08c379a0000000000000000000000000000000000000000000000000000000008152600401610bdd906119d6565b60405180910390fd5b60036004811115610bfa57610bf96118ef565b5b816004811115610c0d57610c0c6118ef565b5b03610c4d576040517f08c379a0000000000000000000000000000000000000000000000000000000008152600401610c4490611a68565b60405180910390fd5b5b50565b6000807f7fffffffffffffffffffffffffffffff5d576e7357a4501ddfe92f46681b20a08360001c1115610c8c576000600391509150610d2a565b600060018787878760405160008152602001604052604051610cb19493929190611ab3565b6020604051602081039080840390855afa158015610cd3573d6000803e3d6000fd5b505050602060405103519050600073ffffffffffffffffffffffffffffffffffffffff168173ffffffffffffffffffffffffffffffffffffffff1603610d2157600060019250925050610d2a565b80600092509250505b94509492505050565b6000604051905090565b600080fd5b600080fd5b600073ffffffffffffffffffffffffffffffffffffffff82169050919050565b6000610d7282610d47565b9050919050565b610d8281610d67565b8114610d8d57600080fd5b50565b600081359050610d9f81610d79565b92915050565b6000819050919050565b610db881610da5565b8114610dc357600080fd5b50565b600081359050610dd581610daf565b92915050565b600080fd5b600080fd5b6000601f19601f8301169050919050565b7f4e487b7100000000000000000000000000000000000000000000000000000000600052604160045260246000fd5b610e2e82610de5565b810181811067ffffffffffffffff82111715610e4d57610e4c610df6565b5b80604052505050565b6000610e60610d33565b9050610e6c8282610e25565b919050565b600067ffffffffffffffff821115610e8c57610e8b610df6565b5b610e9582610de5565b9050602081019050919050565b82818337600083830152505050565b6000610ec4610ebf84610e71565b610e56565b905082815260208101848484011115610ee057610edf610de0565b5b610eeb848285610ea2565b509392505050565b600082601f830112610f0857610f07610ddb565b5b8135610f18848260208601610eb1565b91505092915050565b600080fd5b600080fd5b60008083601f840112610f4157610f40610ddb565b5b8235905067ffffffffffffffff811115610f5e57610f5d610f21565b5b602083019150836001820283011115610f7a57610f79610f26565b5b9250929050565b60008060008060008060008060e0898b031215610fa157610fa0610d3d565b5b6000610faf8b828c01610d90565b9850506020610fc08b828c01610d90565b9750506040610fd18b828c01610dc6565b9650506060610fe28b828c01610dc6565b9550506080610ff38b828c01610dc6565b94505060a089013567ffffffffffffffff81111561101457611013610d42565b5b6110208b828c01610ef3565b93505060c089013567ffffffffffffffff81111561104157611040610d42565b5b61104d8b828c01610f2b565b92509250509295985092959890939650565b61106881610d67565b82525050565b6000602082019050611083600083018461105f565b92915050565b600080600080600060a086880312156110a5576110a4610d3d565b5b60006110b388828901610d90565b95505060206110c488828901610dc6565b94505060406110d588828901610dc6565b93505060606110e688828901610dc6565b925050608086013567ffffffffffffffff81111561110757611106610d42565b5b61111388828901610ef3565b9150509295509295909350565b61112981610da5565b82525050565b60006020820190506111446000830184611120565b92915050565b6000602082840312156111605761115f610d3d565b5b600061116e84828501610d90565b91505092915050565b600081519050919050565b600082825260208201905092915050565b60005b838110156111b1578082015181840152602081019050611196565b60008484015250505050565b60006111c882611177565b6111d28185611182565b93506111e2818560208601611193565b6111eb81610de5565b840191505092915050565b6000602082019050818103600083015261121081846111bd565b905092915050565b600081519050919050565b600081905092915050565b600061123982611218565b6112438185611223565b9350611253818560208601611193565b80840191505092915050565b600061126b828461122e565b915081905092915050565b600061128961128484610e71565b610e56565b9050828152602081018484840111156112a5576112a4610de0565b5b6112b0848285611193565b509392505050565b600082601f8301126112cd576112cc610ddb565b5b81516112dd848260208601611276565b91505092915050565b6000602082840312156112fc576112fb610d3d565b5b600082015167ffffffffffffffff81111561131a57611319610d42565b5b611326848285016112b8565b91505092915050565b600082825260208201905092915050565b7f6e6f6e20737570706f7274656420657263323020746f6b656e00000000000000600082015250565b600061137660198361132f565b915061138182611340565b602082019050919050565b600060208201905081810360008301526113a581611369565b9050919050565b7f6e6f6e20737570706f7274656420636861696e00000000000000000000000000600082015250565b60006113e260138361132f565b91506113ed826113ac565b602082019050919050565b60006020820190508181036000830152611411816113d5565b9050919050565b60008160601b9050919050565b600061143082611418565b9050919050565b600061144282611425565b9050919050565b61145a61145582610d67565b611437565b82525050565b6000819050919050565b61147b61147682610da5565b611460565b82525050565b600061148d8289611449565b60148201915061149d8288611449565b6014820191506114ad828761146a565b6020820191506114bd828661146a565b6020820191506114cd828561146a565b6020820191506114dd828461122e565b9150819050979650505050505050565b7f72652d656e7472616e6365000000000000000000000000000000000000000000600082015250565b6000611523600b8361132f565b915061152e826114ed565b602082019050919050565b6000602082019050818103600083015261155281611516565b9050919050565b7f696e76616c6964207369676e6174757265000000000000000000000000000000600082015250565b600061158f60118361132f565b915061159a82611559565b602082019050919050565b600060208201905081810360008301526115be81611582565b9050919050565b60006040820190506115da600083018561105f565b6115e76020830184611120565b9392505050565b60006115f982611218565b611603818561132f565b9350611613818560208601611193565b61161c81610de5565b840191505092915050565b600060c08201905061163c600083018961105f565b611649602083018861105f565b6116566040830187611120565b6116636060830186611120565b6116706080830185611120565b81810360a083015261168281846115ee565b9050979650505050505050565b7f4e487b7100000000000000000000000000000000000000000000000000000000600052601160045260246000fd5b60006116c982610da5565b91506116d483610da5565b92508282039050818111156116ec576116eb61168f565b5b92915050565b7f77652063616e206f6e6c792073656e642066616365742065766572792032342060008201527f686f757273000000000000000000000000000000000000000000000000000000602082015250565b600061174e60258361132f565b9150611759826116f2565b604082019050919050565b6000602082019050818103600083015261177d81611741565b9050919050565b6000819050919050565b6000819050919050565b60006117b36117ae6117a984611784565b61178e565b610da5565b9050919050565b6117c381611798565b82525050565b60006040820190506117de600083018561105f565b6117eb60208301846117ba565b9392505050565b7f4e487b7100000000000000000000000000000000000000000000000000000000600052602260045260246000fd5b6000600282049050600182168061183957607f821691505b60208210810361184c5761184b6117f2565b5b50919050565b7f19457468657265756d205369676e6564204d6573736167653a0a333200000000600082015250565b6000611888601c83611223565b915061189382611852565b601c82019050919050565b6000819050919050565b6000819050919050565b6118c36118be8261189e565b6118a8565b82525050565b60006118d48261187b565b91506118e082846118b2565b60208201915081905092915050565b7f4e487b7100000000000000000000000000000000000000000000000000000000600052602160045260246000fd5b7f45434453413a20696e76616c6964207369676e61747572650000000000000000600082015250565b600061195460188361132f565b915061195f8261191e565b602082019050919050565b6000602082019050818103600083015261198381611947565b9050919050565b7f45434453413a20696e76616c6964207369676e6174757265206c656e67746800600082015250565b60006119c0601f8361132f565b91506119cb8261198a565b602082019050919050565b600060208201905081810360008301526119ef816119b3565b9050919050565b7f45434453413a20696e76616c6964207369676e6174757265202773272076616c60008201527f7565000000000000000000000000000000000000000000000000000000000000602082015250565b6000611a5260228361132f565b9150611a5d826119f6565b604082019050919050565b60006020820190508181036000830152611a8181611a45565b9050919050565b611a918161189e565b82525050565b600060ff82169050919050565b611aad81611a97565b82525050565b6000608082019050611ac86000830187611a88565b611ad56020830186611aa4565b611ae26040830185611a88565b611aef6060830184611a88565b9594505050505056fea264697066735822122071d5820000f730784519ee7308ace1e855d22bb0459ece694b4d1a7da1497c6764736f6c63430008110033",
    "linkReferences": {},
    "deployedLinkReferences": {}
}