{
  "_format": "hh-sol-artifact-1",
  "contractName": "MyNFT",
  "sourceName": "contracts/myNFT.sol",
  "abi": [
    {
      "inputs": [],
      "stateMutability": "nonpayable",
      "type": "constructor"
    },
    {
      "anonymous": false,
      "inputs": [
        {
          "indexed": true,
          "internalType": "address",
          "name": "owner",
          "type": "address"
        },
        {
          "indexed": true,
          "internalType": "address",
          "name": "approved",
          "type": "address"
        },
        {
          "indexed": true,
          "internalType": "uint256",
          "name": "tokenId",
          "type": "uint256"
        }
      ],
      "name": "Approval",
      "type": "event"
    },
    {
      "anonymous": false,
      "inputs": [
        {
          "indexed": true,
          "internalType": "address",
          "name": "owner",
          "type": "address"
        },
        {
          "indexed": true,
          "internalType": "address",
          "name": "operator",
          "type": "address"
        },
        {
          "indexed": false,
          "internalType": "bool",
          "name": "approved",
          "type": "bool"
        }
      ],
      "name": "ApprovalForAll",
      "type": "event"
    },
    {
      "anonymous": false,
      "inputs": [
        {
          "indexed": false,
          "internalType": "uint256",
          "name": "tokenId",
          "type": "uint256"
        },
        {
          "indexed": false,
          "internalType": "uint256",
          "name": "price",
          "type": "uint256"
        },
        {
          "indexed": false,
          "internalType": "address",
          "name": "creator",
          "type": "address"
        }
      ],
      "name": "NftItemCreated",
      "type": "event"
    },
    {
      "anonymous": false,
      "inputs": [
        {
          "indexed": true,
          "internalType": "address",
          "name": "previousOwner",
          "type": "address"
        },
        {
          "indexed": true,
          "internalType": "address",
          "name": "newOwner",
          "type": "address"
        }
      ],
      "name": "OwnershipTransferred",
      "type": "event"
    },
    {
      "anonymous": false,
      "inputs": [
        {
          "indexed": true,
          "internalType": "address",
          "name": "from",
          "type": "address"
        },
        {
          "indexed": true,
          "internalType": "address",
          "name": "to",
          "type": "address"
        },
        {
          "indexed": true,
          "internalType": "uint256",
          "name": "tokenId",
          "type": "uint256"
        }
      ],
      "name": "Transfer",
      "type": "event"
    },
    {
      "inputs": [
        {
          "internalType": "address",
          "name": "to",
          "type": "address"
        },
        {
          "internalType": "uint256",
          "name": "tokenId",
          "type": "uint256"
        }
      ],
      "name": "approve",
      "outputs": [],
      "stateMutability": "nonpayable",
      "type": "function"
    },
    {
      "inputs": [
        {
          "internalType": "address",
          "name": "owner",
          "type": "address"
        }
      ],
      "name": "balanceOf",
      "outputs": [
        {
          "internalType": "uint256",
          "name": "",
          "type": "uint256"
        }
      ],
      "stateMutability": "view",
      "type": "function"
    },
    {
      "inputs": [
        {
          "internalType": "uint256",
          "name": "tokenId",
          "type": "uint256"
        }
      ],
      "name": "getApproved",
      "outputs": [
        {
          "internalType": "address",
          "name": "",
          "type": "address"
        }
      ],
      "stateMutability": "view",
      "type": "function"
    },
    {
      "inputs": [
        {
          "internalType": "address",
          "name": "owner",
          "type": "address"
        },
        {
          "internalType": "address",
          "name": "operator",
          "type": "address"
        }
      ],
      "name": "isApprovedForAll",
      "outputs": [
        {
          "internalType": "bool",
          "name": "",
          "type": "bool"
        }
      ],
      "stateMutability": "view",
      "type": "function"
    },
    {
      "inputs": [
        {
          "internalType": "string",
          "name": "tokenUrl",
          "type": "string"
        },
        {
          "internalType": "uint256",
          "name": "price",
          "type": "uint256"
        }
      ],
      "name": "mintToken",
      "outputs": [
        {
          "internalType": "uint256",
          "name": "",
          "type": "uint256"
        }
      ],
      "stateMutability": "nonpayable",
      "type": "function"
    },
    {
      "inputs": [],
      "name": "name",
      "outputs": [
        {
          "internalType": "string",
          "name": "",
          "type": "string"
        }
      ],
      "stateMutability": "view",
      "type": "function"
    },
    {
      "inputs": [],
      "name": "owner",
      "outputs": [
        {
          "internalType": "address",
          "name": "",
          "type": "address"
        }
      ],
      "stateMutability": "view",
      "type": "function"
    },
    {
      "inputs": [
        {
          "internalType": "uint256",
          "name": "tokenId",
          "type": "uint256"
        }
      ],
      "name": "ownerOf",
      "outputs": [
        {
          "internalType": "address",
          "name": "",
          "type": "address"
        }
      ],
      "stateMutability": "view",
      "type": "function"
    },
    {
      "inputs": [],
      "name": "renounceOwnership",
      "outputs": [],
      "stateMutability": "nonpayable",
      "type": "function"
    },
    {
      "inputs": [
        {
          "internalType": "address",
          "name": "from",
          "type": "address"
        },
        {
          "internalType": "address",
          "name": "to",
          "type": "address"
        },
        {
          "internalType": "uint256",
          "name": "tokenId",
          "type": "uint256"
        }
      ],
      "name": "safeTransferFrom",
      "outputs": [],
      "stateMutability": "nonpayable",
      "type": "function"
    },
    {
      "inputs": [
        {
          "internalType": "address",
          "name": "from",
          "type": "address"
        },
        {
          "internalType": "address",
          "name": "to",
          "type": "address"
        },
        {
          "internalType": "uint256",
          "name": "tokenId",
          "type": "uint256"
        },
        {
          "internalType": "bytes",
          "name": "data",
          "type": "bytes"
        }
      ],
      "name": "safeTransferFrom",
      "outputs": [],
      "stateMutability": "nonpayable",
      "type": "function"
    },
    {
      "inputs": [
        {
          "internalType": "address",
          "name": "operator",
          "type": "address"
        },
        {
          "internalType": "bool",
          "name": "approved",
          "type": "bool"
        }
      ],
      "name": "setApprovalForAll",
      "outputs": [],
      "stateMutability": "nonpayable",
      "type": "function"
    },
    {
      "inputs": [
        {
          "internalType": "bytes4",
          "name": "interfaceId",
          "type": "bytes4"
        }
      ],
      "name": "supportsInterface",
      "outputs": [
        {
          "internalType": "bool",
          "name": "",
          "type": "bool"
        }
      ],
      "stateMutability": "view",
      "type": "function"
    },
    {
      "inputs": [],
      "name": "symbol",
      "outputs": [
        {
          "internalType": "string",
          "name": "",
          "type": "string"
        }
      ],
      "stateMutability": "view",
      "type": "function"
    },
    {
      "inputs": [
        {
          "internalType": "uint256",
          "name": "_id",
          "type": "uint256"
        }
      ],
      "name": "tokenOwner",
      "outputs": [
        {
          "internalType": "address",
          "name": "",
          "type": "address"
        }
      ],
      "stateMutability": "view",
      "type": "function"
    },
    {
      "inputs": [
        {
          "internalType": "uint256",
          "name": "_id",
          "type": "uint256"
        }
      ],
      "name": "tokenPrice",
      "outputs": [
        {
          "internalType": "uint256",
          "name": "",
          "type": "uint256"
        }
      ],
      "stateMutability": "view",
      "type": "function"
    },
    {
      "inputs": [
        {
          "internalType": "uint256",
          "name": "tokenId",
          "type": "uint256"
        }
      ],
      "name": "tokenURI",
      "outputs": [
        {
          "internalType": "string",
          "name": "",
          "type": "string"
        }
      ],
      "stateMutability": "view",
      "type": "function"
    },
    {
      "inputs": [
        {
          "internalType": "address",
          "name": "from",
          "type": "address"
        },
        {
          "internalType": "address",
          "name": "to",
          "type": "address"
        },
        {
          "internalType": "uint256",
          "name": "tokenId",
          "type": "uint256"
        }
      ],
      "name": "transferFrom",
      "outputs": [],
      "stateMutability": "nonpayable",
      "type": "function"
    },
    {
      "inputs": [
        {
          "internalType": "address",
          "name": "newOwner",
          "type": "address"
        }
      ],
      "name": "transferOwnership",
      "outputs": [],
      "stateMutability": "nonpayable",
      "type": "function"
    }
  ],
  "bytecode": "0x60806040523480156200001157600080fd5b506040518060400160405280600581526020017f4d794e46540000000000000000000000000000000000000000000000000000008152506040518060400160405280600381526020017f4e46540000000000000000000000000000000000000000000000000000000000815250816000908051906020019062000096929190620001a6565b508060019080519060200190620000af929190620001a6565b505050620000d2620000c6620000d860201b60201c565b620000e060201b60201c565b620002bb565b600033905090565b6000600760009054906101000a900473ffffffffffffffffffffffffffffffffffffffff16905081600760006101000a81548173ffffffffffffffffffffffffffffffffffffffff021916908373ffffffffffffffffffffffffffffffffffffffff1602179055508173ffffffffffffffffffffffffffffffffffffffff168173ffffffffffffffffffffffffffffffffffffffff167f8be0079c531659141344cd1fd0a4f28419497f9722a3daafe3b4186f6b6457e060405160405180910390a35050565b828054620001b49062000285565b90600052602060002090601f016020900481019282620001d8576000855562000224565b82601f10620001f357805160ff191683800117855562000224565b8280016001018555821562000224579182015b828111156200022357825182559160200191906001019062000206565b5b50905062000233919062000237565b5090565b5b808211156200025257600081600090555060010162000238565b5090565b7f4e487b7100000000000000000000000000000000000000000000000000000000600052602260045260246000fd5b600060028204905060018216806200029e57607f821691505b60208210811415620002b557620002b462000256565b5b50919050565b6131b880620002cb6000396000f3fe608060405234801561001057600080fd5b50600436106101215760003560e01c8063715018a6116100ad578063c046372c11610071578063c046372c14610306578063c87b56dd14610336578063d4ddce8a14610366578063e985e9c514610396578063f2fde38b146103c657610121565b8063715018a6146102885780638da5cb5b1461029257806395d89b41146102b0578063a22cb465146102ce578063b88d4fde146102ea57610121565b80631caaa487116100f45780631caaa487146101c057806323b872dd146101f057806342842e0e1461020c5780636352211e1461022857806370a082311461025857610121565b806301ffc9a71461012657806306fdde0314610156578063081812fc14610174578063095ea7b3146101a4575b600080fd5b610140600480360381019061013b919061203e565b6103e2565b60405161014d9190612086565b60405180910390f35b61015e6104c4565b60405161016b919061213a565b60405180910390f35b61018e60048036038101906101899190612192565b610556565b60405161019b9190612200565b60405180910390f35b6101be60048036038101906101b99190612247565b61059c565b005b6101da60048036038101906101d59190612192565b6106b4565b6040516101e79190612200565b60405180910390f35b61020a60048036038101906102059190612287565b6106f4565b005b61022660048036038101906102219190612287565b610754565b005b610242600480360381019061023d9190612192565b610774565b60405161024f9190612200565b60405180910390f35b610272600480360381019061026d91906122da565b6107fb565b60405161027f9190612316565b60405180910390f35b6102906108b3565b005b61029a6108c7565b6040516102a79190612200565b60405180910390f35b6102b86108f1565b6040516102c5919061213a565b60405180910390f35b6102e860048036038101906102e3919061235d565b610983565b005b61030460048036038101906102ff91906124d2565b610999565b005b610320600480360381019061031b91906125f6565b6109fb565b60405161032d9190612316565b60405180910390f35b610350600480360381019061034b9190612192565b610bd2565b60405161035d919061213a565b60405180910390f35b610380600480360381019061037b9190612192565b610ce5565b60405161038d9190612316565b60405180910390f35b6103b060048036038101906103ab9190612652565b610d05565b6040516103bd9190612086565b60405180910390f35b6103e060048036038101906103db91906122da565b610d99565b005b60007f80ac58cd000000000000000000000000000000000000000000000000000000007bffffffffffffffffffffffffffffffffffffffffffffffffffffffff1916827bffffffffffffffffffffffffffffffffffffffffffffffffffffffff191614806104ad57507f5b5e139f000000000000000000000000000000000000000000000000000000007bffffffffffffffffffffffffffffffffffffffffffffffffffffffff1916827bffffffffffffffffffffffffffffffffffffffffffffffffffffffff1916145b806104bd57506104bc82610e1d565b5b9050919050565b6060600080546104d3906126c1565b80601f01602080910402602001604051908101604052809291908181526020018280546104ff906126c1565b801561054c5780601f106105215761010080835404028352916020019161054c565b820191906000526020600020905b81548152906001019060200180831161052f57829003601f168201915b5050505050905090565b600061056182610e87565b6004600083815260200190815260200160002060009054906101000a900473ffffffffffffffffffffffffffffffffffffffff169050919050565b60006105a782610774565b90508073ffffffffffffffffffffffffffffffffffffffff168373ffffffffffffffffffffffffffffffffffffffff161415610618576040517f08c379a000000000000000000000000000000000000000000000000000000000815260040161060f90612765565b60405180910390fd5b8073ffffffffffffffffffffffffffffffffffffffff16610637610ed2565b73ffffffffffffffffffffffffffffffffffffffff161480610666575061066581610660610ed2565b610d05565b5b6106a5576040517f08c379a000000000000000000000000000000000000000000000000000000000815260040161069c906127f7565b60405180910390fd5b6106af8383610eda565b505050565b6000600b600083815260200190815260200160002060020160009054906101000a900473ffffffffffffffffffffffffffffffffffffffff169050919050565b6107056106ff610ed2565b82610f93565b610744576040517f08c379a000000000000000000000000000000000000000000000000000000000815260040161073b90612889565b60405180910390fd5b61074f838383611028565b505050565b61076f83838360405180602001604052806000815250610999565b505050565b60008061078083611322565b9050600073ffffffffffffffffffffffffffffffffffffffff168173ffffffffffffffffffffffffffffffffffffffff1614156107f2576040517f08c379a00000000000000000000000000000000000000000000000000000000081526004016107e9906128f5565b60405180910390fd5b80915050919050565b60008073ffffffffffffffffffffffffffffffffffffffff168273ffffffffffffffffffffffffffffffffffffffff16141561086c576040517f08c379a000000000000000000000000000000000000000000000000000000000815260040161086390612987565b60405180910390fd5b600360008373ffffffffffffffffffffffffffffffffffffffff1673ffffffffffffffffffffffffffffffffffffffff168152602001908152602001600020549050919050565b6108bb61135f565b6108c560006113dd565b565b6000600760009054906101000a900473ffffffffffffffffffffffffffffffffffffffff16905090565b606060018054610900906126c1565b80601f016020809104026020016040519081016040528092919081815260200182805461092c906126c1565b80156109795780601f1061094e57610100808354040283529160200191610979565b820191906000526020600020905b81548152906001019060200180831161095c57829003601f168201915b5050505050905090565b61099561098e610ed2565b83836114a3565b5050565b6109aa6109a4610ed2565b83610f93565b6109e9576040517f08c379a00000000000000000000000000000000000000000000000000000000081526004016109e090612889565b60405180910390fd5b6109f584848484611610565b50505050565b6000808211610a3f576040517f08c379a0000000000000000000000000000000000000000000000000000000008152600401610a36906129f3565b60405180910390fd5b610a488361166c565b15610a88576040517f08c379a0000000000000000000000000000000000000000000000000000000008152600401610a7f90612a5f565b60405180910390fd5b610a9260086116a8565b6000610a9e60086116be565b9050610aaa33826116cc565b610ab481856118ea565b6001600a85604051610ac69190612abb565b908152602001604051809103902060006101000a81548160ff02191690831515021790555060405180606001604052808281526020018481526020013373ffffffffffffffffffffffffffffffffffffffff16815250600b6000838152602001908152602001600020600082015181600001556020820151816001015560408201518160020160006101000a81548173ffffffffffffffffffffffffffffffffffffffff021916908373ffffffffffffffffffffffffffffffffffffffff1602179055509050507f5fff9e71045432a27d0358f70ba00effee86f446a74b6c31a88ab85e5e81d6e5818433604051610bc093929190612ad2565b60405180910390a18091505092915050565b6060610bdd82610e87565b6000600660008481526020019081526020016000208054610bfd906126c1565b80601f0160208091040260200160405190810160405280929190818152602001828054610c29906126c1565b8015610c765780601f10610c4b57610100808354040283529160200191610c76565b820191906000526020600020905b815481529060010190602001808311610c5957829003601f168201915b505050505090506000610c8761195e565b9050600081511415610c9d578192505050610ce0565b600082511115610cd2578082604051602001610cba929190612b09565b60405160208183030381529060405292505050610ce0565b610cdb84611975565b925050505b919050565b6000600b6000838152602001908152602001600020600101549050919050565b6000600560008473ffffffffffffffffffffffffffffffffffffffff1673ffffffffffffffffffffffffffffffffffffffff16815260200190815260200160002060008373ffffffffffffffffffffffffffffffffffffffff1673ffffffffffffffffffffffffffffffffffffffff16815260200190815260200160002060009054906101000a900460ff16905092915050565b610da161135f565b600073ffffffffffffffffffffffffffffffffffffffff168173ffffffffffffffffffffffffffffffffffffffff161415610e11576040517f08c379a0000000000000000000000000000000000000000000000000000000008152600401610e0890612b9f565b60405180910390fd5b610e1a816113dd565b50565b60007f01ffc9a7000000000000000000000000000000000000000000000000000000007bffffffffffffffffffffffffffffffffffffffffffffffffffffffff1916827bffffffffffffffffffffffffffffffffffffffffffffffffffffffff1916149050919050565b610e90816119dd565b610ecf576040517f08c379a0000000000000000000000000000000000000000000000000000000008152600401610ec6906128f5565b60405180910390fd5b50565b600033905090565b816004600083815260200190815260200160002060006101000a81548173ffffffffffffffffffffffffffffffffffffffff021916908373ffffffffffffffffffffffffffffffffffffffff160217905550808273ffffffffffffffffffffffffffffffffffffffff16610f4d83610774565b73ffffffffffffffffffffffffffffffffffffffff167f8c5be1e5ebec7d5bd14f71427d1e84f3dd0314c0f7b2291e5b200ac8c7c3b92560405160405180910390a45050565b600080610f9f83610774565b90508073ffffffffffffffffffffffffffffffffffffffff168473ffffffffffffffffffffffffffffffffffffffff161480610fe15750610fe08185610d05565b5b8061101f57508373ffffffffffffffffffffffffffffffffffffffff1661100784610556565b73ffffffffffffffffffffffffffffffffffffffff16145b91505092915050565b8273ffffffffffffffffffffffffffffffffffffffff1661104882610774565b73ffffffffffffffffffffffffffffffffffffffff161461109e576040517f08c379a000000000000000000000000000000000000000000000000000000000815260040161109590612c31565b60405180910390fd5b600073ffffffffffffffffffffffffffffffffffffffff168273ffffffffffffffffffffffffffffffffffffffff16141561110e576040517f08c379a000000000000000000000000000000000000000000000000000000000815260040161110590612cc3565b60405180910390fd5b61111b8383836001611a1e565b8273ffffffffffffffffffffffffffffffffffffffff1661113b82610774565b73ffffffffffffffffffffffffffffffffffffffff1614611191576040517f08c379a000000000000000000000000000000000000000000000000000000000815260040161118890612c31565b60405180910390fd5b6004600082815260200190815260200160002060006101000a81549073ffffffffffffffffffffffffffffffffffffffff02191690556001600360008573ffffffffffffffffffffffffffffffffffffffff1673ffffffffffffffffffffffffffffffffffffffff168152602001908152602001600020600082825403925050819055506001600360008473ffffffffffffffffffffffffffffffffffffffff1673ffffffffffffffffffffffffffffffffffffffff16815260200190815260200160002060008282540192505081905550816002600083815260200190815260200160002060006101000a81548173ffffffffffffffffffffffffffffffffffffffff021916908373ffffffffffffffffffffffffffffffffffffffff160217905550808273ffffffffffffffffffffffffffffffffffffffff168473ffffffffffffffffffffffffffffffffffffffff167fddf252ad1be2c89b69c2b068fc378daa952ba7f163c4a11628f55a4df523b3ef60405160405180910390a461131d8383836001611b44565b505050565b60006002600083815260200190815260200160002060009054906101000a900473ffffffffffffffffffffffffffffffffffffffff169050919050565b611367610ed2565b73ffffffffffffffffffffffffffffffffffffffff166113856108c7565b73ffffffffffffffffffffffffffffffffffffffff16146113db576040517f08c379a00000000000000000000000000000000000000000000000000000000081526004016113d290612d2f565b60405180910390fd5b565b6000600760009054906101000a900473ffffffffffffffffffffffffffffffffffffffff16905081600760006101000a81548173ffffffffffffffffffffffffffffffffffffffff021916908373ffffffffffffffffffffffffffffffffffffffff1602179055508173ffffffffffffffffffffffffffffffffffffffff168173ffffffffffffffffffffffffffffffffffffffff167f8be0079c531659141344cd1fd0a4f28419497f9722a3daafe3b4186f6b6457e060405160405180910390a35050565b8173ffffffffffffffffffffffffffffffffffffffff168373ffffffffffffffffffffffffffffffffffffffff161415611512576040517f08c379a000000000000000000000000000000000000000000000000000000000815260040161150990612d9b565b60405180910390fd5b80600560008573ffffffffffffffffffffffffffffffffffffffff1673ffffffffffffffffffffffffffffffffffffffff16815260200190815260200160002060008473ffffffffffffffffffffffffffffffffffffffff1673ffffffffffffffffffffffffffffffffffffffff16815260200190815260200160002060006101000a81548160ff0219169083151502179055508173ffffffffffffffffffffffffffffffffffffffff168373ffffffffffffffffffffffffffffffffffffffff167f17307eab39ab6107e8899845ad3d59bd9653f200f220920489ca2b5937696c31836040516116039190612086565b60405180910390a3505050565b61161b848484611028565b61162784848484611b4a565b611666576040517f08c379a000000000000000000000000000000000000000000000000000000000815260040161165d90612e2d565b60405180910390fd5b50505050565b600060011515600a836040516116829190612abb565b908152602001604051809103902060009054906101000a900460ff161515149050919050565b6001816000016000828254019250508190555050565b600081600001549050919050565b600073ffffffffffffffffffffffffffffffffffffffff168273ffffffffffffffffffffffffffffffffffffffff16141561173c576040517f08c379a000000000000000000000000000000000000000000000000000000000815260040161173390612e99565b60405180910390fd5b611745816119dd565b15611785576040517f08c379a000000000000000000000000000000000000000000000000000000000815260040161177c90612f05565b60405180910390fd5b611793600083836001611a1e565b61179c816119dd565b156117dc576040517f08c379a00000000000000000000000000000000000000000000000000000000081526004016117d390612f05565b60405180910390fd5b6001600360008473ffffffffffffffffffffffffffffffffffffffff1673ffffffffffffffffffffffffffffffffffffffff16815260200190815260200160002060008282540192505081905550816002600083815260200190815260200160002060006101000a81548173ffffffffffffffffffffffffffffffffffffffff021916908373ffffffffffffffffffffffffffffffffffffffff160217905550808273ffffffffffffffffffffffffffffffffffffffff16600073ffffffffffffffffffffffffffffffffffffffff167fddf252ad1be2c89b69c2b068fc378daa952ba7f163c4a11628f55a4df523b3ef60405160405180910390a46118e6600083836001611b44565b5050565b6118f3826119dd565b611932576040517f08c379a000000000000000000000000000000000000000000000000000000000815260040161192990612f97565b60405180910390fd5b80600660008481526020019081526020016000209080519060200190611959929190611f2f565b505050565b606060405180602001604052806000815250905090565b606061198082610e87565b600061198a61195e565b905060008151116119aa57604051806020016040528060008152506119d5565b806119b484611ce1565b6040516020016119c5929190612b09565b6040516020818303038152906040525b915050919050565b60008073ffffffffffffffffffffffffffffffffffffffff166119ff83611322565b73ffffffffffffffffffffffffffffffffffffffff1614159050919050565b6001811115611b3e57600073ffffffffffffffffffffffffffffffffffffffff168473ffffffffffffffffffffffffffffffffffffffff1614611ab25780600360008673ffffffffffffffffffffffffffffffffffffffff1673ffffffffffffffffffffffffffffffffffffffff1681526020019081526020016000206000828254611aaa9190612fe6565b925050819055505b600073ffffffffffffffffffffffffffffffffffffffff168373ffffffffffffffffffffffffffffffffffffffff1614611b3d5780600360008573ffffffffffffffffffffffffffffffffffffffff1673ffffffffffffffffffffffffffffffffffffffff1681526020019081526020016000206000828254611b35919061301a565b925050819055505b5b50505050565b50505050565b6000611b6b8473ffffffffffffffffffffffffffffffffffffffff16611db9565b15611cd4578373ffffffffffffffffffffffffffffffffffffffff1663150b7a02611b94610ed2565b8786866040518563ffffffff1660e01b8152600401611bb694939291906130c5565b602060405180830381600087803b158015611bd057600080fd5b505af1925050508015611c0157506040513d601f19601f82011682018060405250810190611bfe9190613126565b60015b611c84573d8060008114611c31576040519150601f19603f3d011682016040523d82523d6000602084013e611c36565b606091505b50600081511415611c7c576040517f08c379a0000000000000000000000000000000000000000000000000000000008152600401611c7390612e2d565b60405180910390fd5b805181602001fd5b63150b7a0260e01b7bffffffffffffffffffffffffffffffffffffffffffffffffffffffff1916817bffffffffffffffffffffffffffffffffffffffffffffffffffffffff191614915050611cd9565b600190505b949350505050565b606060006001611cf084611ddc565b01905060008167ffffffffffffffff811115611d0f57611d0e6123a7565b5b6040519080825280601f01601f191660200182016040528015611d415781602001600182028036833780820191505090505b509050600082602001820190505b600115611dae578080600190039150507f3031323334353637383961626364656600000000000000000000000000000000600a86061a8153600a8581611d9857611d97613153565b5b0494506000851415611da957611dae565b611d4f565b819350505050919050565b6000808273ffffffffffffffffffffffffffffffffffffffff163b119050919050565b600080600090507a184f03e93ff9f4daa797ed6e38ed64bf6a1f0100000000000000008310611e3a577a184f03e93ff9f4daa797ed6e38ed64bf6a1f0100000000000000008381611e3057611e2f613153565b5b0492506040810190505b6d04ee2d6d415b85acef81000000008310611e77576d04ee2d6d415b85acef81000000008381611e6d57611e6c613153565b5b0492506020810190505b662386f26fc100008310611ea657662386f26fc100008381611e9c57611e9b613153565b5b0492506010810190505b6305f5e1008310611ecf576305f5e1008381611ec557611ec4613153565b5b0492506008810190505b6127108310611ef4576127108381611eea57611ee9613153565b5b0492506004810190505b60648310611f175760648381611f0d57611f0c613153565b5b0492506002810190505b600a8310611f26576001810190505b80915050919050565b828054611f3b906126c1565b90600052602060002090601f016020900481019282611f5d5760008555611fa4565b82601f10611f7657805160ff1916838001178555611fa4565b82800160010185558215611fa4579182015b82811115611fa3578251825591602001919060010190611f88565b5b509050611fb19190611fb5565b5090565b5b80821115611fce576000816000905550600101611fb6565b5090565b6000604051905090565b600080fd5b600080fd5b60007fffffffff0000000000000000000000000000000000000000000000000000000082169050919050565b61201b81611fe6565b811461202657600080fd5b50565b60008135905061203881612012565b92915050565b60006020828403121561205457612053611fdc565b5b600061206284828501612029565b91505092915050565b60008115159050919050565b6120808161206b565b82525050565b600060208201905061209b6000830184612077565b92915050565b600081519050919050565b600082825260208201905092915050565b60005b838110156120db5780820151818401526020810190506120c0565b838111156120ea576000848401525b50505050565b6000601f19601f8301169050919050565b600061210c826120a1565b61211681856120ac565b93506121268185602086016120bd565b61212f816120f0565b840191505092915050565b600060208201905081810360008301526121548184612101565b905092915050565b6000819050919050565b61216f8161215c565b811461217a57600080fd5b50565b60008135905061218c81612166565b92915050565b6000602082840312156121a8576121a7611fdc565b5b60006121b68482850161217d565b91505092915050565b600073ffffffffffffffffffffffffffffffffffffffff82169050919050565b60006121ea826121bf565b9050919050565b6121fa816121df565b82525050565b600060208201905061221560008301846121f1565b92915050565b612224816121df565b811461222f57600080fd5b50565b6000813590506122418161221b565b92915050565b6000806040838503121561225e5761225d611fdc565b5b600061226c85828601612232565b925050602061227d8582860161217d565b9150509250929050565b6000806000606084860312156122a05761229f611fdc565b5b60006122ae86828701612232565b93505060206122bf86828701612232565b92505060406122d08682870161217d565b9150509250925092565b6000602082840312156122f0576122ef611fdc565b5b60006122fe84828501612232565b91505092915050565b6123108161215c565b82525050565b600060208201905061232b6000830184612307565b92915050565b61233a8161206b565b811461234557600080fd5b50565b60008135905061235781612331565b92915050565b6000806040838503121561237457612373611fdc565b5b600061238285828601612232565b925050602061239385828601612348565b9150509250929050565b600080fd5b600080fd5b7f4e487b7100000000000000000000000000000000000000000000000000000000600052604160045260246000fd5b6123df826120f0565b810181811067ffffffffffffffff821117156123fe576123fd6123a7565b5b80604052505050565b6000612411611fd2565b905061241d82826123d6565b919050565b600067ffffffffffffffff82111561243d5761243c6123a7565b5b612446826120f0565b9050602081019050919050565b82818337600083830152505050565b600061247561247084612422565b612407565b905082815260208101848484011115612491576124906123a2565b5b61249c848285612453565b509392505050565b600082601f8301126124b9576124b861239d565b5b81356124c9848260208601612462565b91505092915050565b600080600080608085870312156124ec576124eb611fdc565b5b60006124fa87828801612232565b945050602061250b87828801612232565b935050604061251c8782880161217d565b925050606085013567ffffffffffffffff81111561253d5761253c611fe1565b5b612549878288016124a4565b91505092959194509250565b600067ffffffffffffffff8211156125705761256f6123a7565b5b612579826120f0565b9050602081019050919050565b600061259961259484612555565b612407565b9050828152602081018484840111156125b5576125b46123a2565b5b6125c0848285612453565b509392505050565b600082601f8301126125dd576125dc61239d565b5b81356125ed848260208601612586565b91505092915050565b6000806040838503121561260d5761260c611fdc565b5b600083013567ffffffffffffffff81111561262b5761262a611fe1565b5b612637858286016125c8565b92505060206126488582860161217d565b9150509250929050565b6000806040838503121561266957612668611fdc565b5b600061267785828601612232565b925050602061268885828601612232565b9150509250929050565b7f4e487b7100000000000000000000000000000000000000000000000000000000600052602260045260246000fd5b600060028204905060018216806126d957607f821691505b602082108114156126ed576126ec612692565b5b50919050565b7f4552433732313a20617070726f76616c20746f2063757272656e74206f776e6560008201527f7200000000000000000000000000000000000000000000000000000000000000602082015250565b600061274f6021836120ac565b915061275a826126f3565b604082019050919050565b6000602082019050818103600083015261277e81612742565b9050919050565b7f4552433732313a20617070726f76652063616c6c6572206973206e6f7420746f60008201527f6b656e206f776e6572206f7220617070726f76656420666f7220616c6c000000602082015250565b60006127e1603d836120ac565b91506127ec82612785565b604082019050919050565b60006020820190508181036000830152612810816127d4565b9050919050565b7f4552433732313a2063616c6c6572206973206e6f7420746f6b656e206f776e6560008201527f72206f7220617070726f76656400000000000000000000000000000000000000602082015250565b6000612873602d836120ac565b915061287e82612817565b604082019050919050565b600060208201905081810360008301526128a281612866565b9050919050565b7f4552433732313a20696e76616c696420746f6b656e2049440000000000000000600082015250565b60006128df6018836120ac565b91506128ea826128a9565b602082019050919050565b6000602082019050818103600083015261290e816128d2565b9050919050565b7f4552433732313a2061646472657373207a65726f206973206e6f74206120766160008201527f6c6964206f776e65720000000000000000000000000000000000000000000000602082015250565b60006129716029836120ac565b915061297c82612915565b604082019050919050565b600060208201905081810360008301526129a081612964565b9050919050565b7f5072696365206d75737420626520686967686572207468616e207a65726f0000600082015250565b60006129dd601e836120ac565b91506129e8826129a7565b602082019050919050565b60006020820190508181036000830152612a0c816129d0565b9050919050565b7f546f6b656e2055524920616c7265616479206578697374730000000000000000600082015250565b6000612a496018836120ac565b9150612a5482612a13565b602082019050919050565b60006020820190508181036000830152612a7881612a3c565b9050919050565b600081905092915050565b6000612a95826120a1565b612a9f8185612a7f565b9350612aaf8185602086016120bd565b80840191505092915050565b6000612ac78284612a8a565b915081905092915050565b6000606082019050612ae76000830186612307565b612af46020830185612307565b612b0160408301846121f1565b949350505050565b6000612b158285612a8a565b9150612b218284612a8a565b91508190509392505050565b7f4f776e61626c653a206e6577206f776e657220697320746865207a65726f206160008201527f6464726573730000000000000000000000000000000000000000000000000000602082015250565b6000612b896026836120ac565b9150612b9482612b2d565b604082019050919050565b60006020820190508181036000830152612bb881612b7c565b9050919050565b7f4552433732313a207472616e736665722066726f6d20696e636f72726563742060008201527f6f776e6572000000000000000000000000000000000000000000000000000000602082015250565b6000612c1b6025836120ac565b9150612c2682612bbf565b604082019050919050565b60006020820190508181036000830152612c4a81612c0e565b9050919050565b7f4552433732313a207472616e7366657220746f20746865207a65726f2061646460008201527f7265737300000000000000000000000000000000000000000000000000000000602082015250565b6000612cad6024836120ac565b9150612cb882612c51565b604082019050919050565b60006020820190508181036000830152612cdc81612ca0565b9050919050565b7f4f776e61626c653a2063616c6c6572206973206e6f7420746865206f776e6572600082015250565b6000612d196020836120ac565b9150612d2482612ce3565b602082019050919050565b60006020820190508181036000830152612d4881612d0c565b9050919050565b7f4552433732313a20617070726f766520746f2063616c6c657200000000000000600082015250565b6000612d856019836120ac565b9150612d9082612d4f565b602082019050919050565b60006020820190508181036000830152612db481612d78565b9050919050565b7f4552433732313a207472616e7366657220746f206e6f6e20455243373231526560008201527f63656976657220696d706c656d656e7465720000000000000000000000000000602082015250565b6000612e176032836120ac565b9150612e2282612dbb565b604082019050919050565b60006020820190508181036000830152612e4681612e0a565b9050919050565b7f4552433732313a206d696e7420746f20746865207a65726f2061646472657373600082015250565b6000612e836020836120ac565b9150612e8e82612e4d565b602082019050919050565b60006020820190508181036000830152612eb281612e76565b9050919050565b7f4552433732313a20746f6b656e20616c7265616479206d696e74656400000000600082015250565b6000612eef601c836120ac565b9150612efa82612eb9565b602082019050919050565b60006020820190508181036000830152612f1e81612ee2565b9050919050565b7f45524337323155524953746f726167653a2055524920736574206f66206e6f6e60008201527f6578697374656e7420746f6b656e000000000000000000000000000000000000602082015250565b6000612f81602e836120ac565b9150612f8c82612f25565b604082019050919050565b60006020820190508181036000830152612fb081612f74565b9050919050565b7f4e487b7100000000000000000000000000000000000000000000000000000000600052601160045260246000fd5b6000612ff18261215c565b9150612ffc8361215c565b92508282101561300f5761300e612fb7565b5b828203905092915050565b60006130258261215c565b91506130308361215c565b9250827fffffffffffffffffffffffffffffffffffffffffffffffffffffffffffffffff0382111561306557613064612fb7565b5b828201905092915050565b600081519050919050565b600082825260208201905092915050565b600061309782613070565b6130a1818561307b565b93506130b18185602086016120bd565b6130ba816120f0565b840191505092915050565b60006080820190506130da60008301876121f1565b6130e760208301866121f1565b6130f46040830185612307565b8181036060830152613106818461308c565b905095945050505050565b60008151905061312081612012565b92915050565b60006020828403121561313c5761313b611fdc565b5b600061314a84828501613111565b91505092915050565b7f4e487b7100000000000000000000000000000000000000000000000000000000600052601260045260246000fdfea26469706673582212205a0bf3f8dc813b9097b2bc0728b082603fc2525ff5039ec448f53efc76680d9864736f6c63430008090033",
  "linkReferences": {},
  "deployedLinkReferences": {}
}