{
    "_format": "hh-sol-artifact-1",
    "contractName": "BridgeERC20",
    "sourceName": "contracts/BridgeERC20.sol",
    "abi": [
        {
            "inputs": [
                {
                    "internalType": "string",
                    "name": "name",
                    "type": "string"
                },
                {
                    "internalType": "string",
                    "name": "symbol",
                    "type": "string"
                },
                {
                    "internalType": "uint256",
                    "name": "initialSupply",
                    "type": "uint256"
                }
            ],
            "stateMutability": "nonpayable",
            "type": "constructor"
        },
        {
            "anonymous": false,
            "inputs": [
                {
                    "indexed": true,
                    "internalType": "address",
                    "name": "owner",
                    "type": "address"
                },
                {
                    "indexed": true,
                    "internalType": "address",
                    "name": "spender",
                    "type": "address"
                },
                {
                    "indexed": false,
                    "internalType": "uint256",
                    "name": "value",
                    "type": "uint256"
                }
            ],
            "name": "Approval",
            "type": "event"
        },
        {
            "anonymous": false,
            "inputs": [
                {
                    "indexed": true,
                    "internalType": "bytes32",
                    "name": "role",
                    "type": "bytes32"
                },
                {
                    "indexed": true,
                    "internalType": "bytes32",
                    "name": "previousAdminRole",
                    "type": "bytes32"
                },
                {
                    "indexed": true,
                    "internalType": "bytes32",
                    "name": "newAdminRole",
                    "type": "bytes32"
                }
            ],
            "name": "RoleAdminChanged",
            "type": "event"
        },
        {
            "anonymous": false,
            "inputs": [
                {
                    "indexed": true,
                    "internalType": "bytes32",
                    "name": "role",
                    "type": "bytes32"
                },
                {
                    "indexed": true,
                    "internalType": "address",
                    "name": "account",
                    "type": "address"
                },
                {
                    "indexed": true,
                    "internalType": "address",
                    "name": "sender",
                    "type": "address"
                }
            ],
            "name": "RoleGranted",
            "type": "event"
        },
        {
            "anonymous": false,
            "inputs": [
                {
                    "indexed": true,
                    "internalType": "bytes32",
                    "name": "role",
                    "type": "bytes32"
                },
                {
                    "indexed": true,
                    "internalType": "address",
                    "name": "account",
                    "type": "address"
                },
                {
                    "indexed": true,
                    "internalType": "address",
                    "name": "sender",
                    "type": "address"
                }
            ],
            "name": "RoleRevoked",
            "type": "event"
        },
        {
            "anonymous": false,
            "inputs": [
                {
                    "indexed": true,
                    "internalType": "address",
                    "name": "from",
                    "type": "address"
                },
                {
                    "indexed": true,
                    "internalType": "address",
                    "name": "to",
                    "type": "address"
                },
                {
                    "indexed": false,
                    "internalType": "uint256",
                    "name": "value",
                    "type": "uint256"
                }
            ],
            "name": "Transfer",
            "type": "event"
        },
        {
            "inputs": [],
            "name": "AUTHORIZED_ROLE",
            "outputs": [
                {
                    "internalType": "bytes32",
                    "name": "",
                    "type": "bytes32"
                }
            ],
            "stateMutability": "view",
            "type": "function"
        },
        {
            "inputs": [],
            "name": "DEFAULT_ADMIN_ROLE",
            "outputs": [
                {
                    "internalType": "bytes32",
                    "name": "",
                    "type": "bytes32"
                }
            ],
            "stateMutability": "view",
            "type": "function"
        },
        {
            "inputs": [
                {
                    "internalType": "address",
                    "name": "owner",
                    "type": "address"
                },
                {
                    "internalType": "address",
                    "name": "spender",
                    "type": "address"
                }
            ],
            "name": "allowance",
            "outputs": [
                {
                    "internalType": "uint256",
                    "name": "",
                    "type": "uint256"
                }
            ],
            "stateMutability": "view",
            "type": "function"
        },
        {
            "inputs": [
                {
                    "internalType": "address",
                    "name": "spender",
                    "type": "address"
                },
                {
                    "internalType": "uint256",
                    "name": "amount",
                    "type": "uint256"
                }
            ],
            "name": "approve",
            "outputs": [
                {
                    "internalType": "bool",
                    "name": "",
                    "type": "bool"
                }
            ],
            "stateMutability": "nonpayable",
            "type": "function"
        },
        {
            "inputs": [
                {
                    "internalType": "address",
                    "name": "account",
                    "type": "address"
                }
            ],
            "name": "balanceOf",
            "outputs": [
                {
                    "internalType": "uint256",
                    "name": "",
                    "type": "uint256"
                }
            ],
            "stateMutability": "view",
            "type": "function"
        },
        {
            "inputs": [
                {
                    "internalType": "address",
                    "name": "from",
                    "type": "address"
                },
                {
                    "internalType": "uint256",
                    "name": "amount",
                    "type": "uint256"
                }
            ],
            "name": "burn",
            "outputs": [],
            "stateMutability": "nonpayable",
            "type": "function"
        },
        {
            "inputs": [],
            "name": "decimals",
            "outputs": [
                {
                    "internalType": "uint8",
                    "name": "",
                    "type": "uint8"
                }
            ],
            "stateMutability": "view",
            "type": "function"
        },
        {
            "inputs": [
                {
                    "internalType": "address",
                    "name": "spender",
                    "type": "address"
                },
                {
                    "internalType": "uint256",
                    "name": "subtractedValue",
                    "type": "uint256"
                }
            ],
            "name": "decreaseAllowance",
            "outputs": [
                {
                    "internalType": "bool",
                    "name": "",
                    "type": "bool"
                }
            ],
            "stateMutability": "nonpayable",
            "type": "function"
        },
        {
            "inputs": [
                {
                    "internalType": "bytes32",
                    "name": "role",
                    "type": "bytes32"
                }
            ],
            "name": "getRoleAdmin",
            "outputs": [
                {
                    "internalType": "bytes32",
                    "name": "",
                    "type": "bytes32"
                }
            ],
            "stateMutability": "view",
            "type": "function"
        },
        {
            "inputs": [
                {
                    "internalType": "bytes32",
                    "name": "role",
                    "type": "bytes32"
                },
                {
                    "internalType": "address",
                    "name": "account",
                    "type": "address"
                }
            ],
            "name": "grantRole",
            "outputs": [],
            "stateMutability": "nonpayable",
            "type": "function"
        },
        {
            "inputs": [
                {
                    "internalType": "bytes32",
                    "name": "role",
                    "type": "bytes32"
                },
                {
                    "internalType": "address",
                    "name": "account",
                    "type": "address"
                }
            ],
            "name": "hasRole",
            "outputs": [
                {
                    "internalType": "bool",
                    "name": "",
                    "type": "bool"
                }
            ],
            "stateMutability": "view",
            "type": "function"
        },
        {
            "inputs": [
                {
                    "internalType": "address",
                    "name": "spender",
                    "type": "address"
                },
                {
                    "internalType": "uint256",
                    "name": "addedValue",
                    "type": "uint256"
                }
            ],
            "name": "increaseAllowance",
            "outputs": [
                {
                    "internalType": "bool",
                    "name": "",
                    "type": "bool"
                }
            ],
            "stateMutability": "nonpayable",
            "type": "function"
        },
        {
            "inputs": [
                {
                    "internalType": "address",
                    "name": "to",
                    "type": "address"
                },
                {
                    "internalType": "uint256",
                    "name": "amount",
                    "type": "uint256"
                }
            ],
            "name": "mint",
            "outputs": [],
            "stateMutability": "nonpayable",
            "type": "function"
        },
        {
            "inputs": [],
            "name": "name",
            "outputs": [
                {
                    "internalType": "string",
                    "name": "",
                    "type": "string"
                }
            ],
            "stateMutability": "view",
            "type": "function"
        },
        {
            "inputs": [
                {
                    "internalType": "bytes32",
                    "name": "role",
                    "type": "bytes32"
                },
                {
                    "internalType": "address",
                    "name": "account",
                    "type": "address"
                }
            ],
            "name": "renounceRole",
            "outputs": [],
            "stateMutability": "nonpayable",
            "type": "function"
        },
        {
            "inputs": [
                {
                    "internalType": "bytes32",
                    "name": "role",
                    "type": "bytes32"
                },
                {
                    "internalType": "address",
                    "name": "account",
                    "type": "address"
                }
            ],
            "name": "revokeRole",
            "outputs": [],
            "stateMutability": "nonpayable",
            "type": "function"
        },
        {
            "inputs": [
                {
                    "internalType": "bytes4",
                    "name": "interfaceId",
                    "type": "bytes4"
                }
            ],
            "name": "supportsInterface",
            "outputs": [
                {
                    "internalType": "bool",
                    "name": "",
                    "type": "bool"
                }
            ],
            "stateMutability": "view",
            "type": "function"
        },
        {
            "inputs": [],
            "name": "symbol",
            "outputs": [
                {
                    "internalType": "string",
                    "name": "",
                    "type": "string"
                }
            ],
            "stateMutability": "view",
            "type": "function"
        },
        {
            "inputs": [],
            "name": "totalSupply",
            "outputs": [
                {
                    "internalType": "uint256",
                    "name": "",
                    "type": "uint256"
                }
            ],
            "stateMutability": "view",
            "type": "function"
        },
        {
            "inputs": [
                {
                    "internalType": "address",
                    "name": "to",
                    "type": "address"
                },
                {
                    "internalType": "uint256",
                    "name": "amount",
                    "type": "uint256"
                }
            ],
            "name": "transfer",
            "outputs": [
                {
                    "internalType": "bool",
                    "name": "",
                    "type": "bool"
                }
            ],
            "stateMutability": "nonpayable",
            "type": "function"
        },
        {
            "inputs": [
                {
                    "internalType": "address",
                    "name": "from",
                    "type": "address"
                },
                {
                    "internalType": "address",
                    "name": "to",
                    "type": "address"
                },
                {
                    "internalType": "uint256",
                    "name": "amount",
                    "type": "uint256"
                }
            ],
            "name": "transferFrom",
            "outputs": [
                {
                    "internalType": "bool",
                    "name": "",
                    "type": "bool"
                }
            ],
            "stateMutability": "nonpayable",
            "type": "function"
        }
    ],
    "bytecode": "0x60806040523480156200001157600080fd5b50604051620031b5380380620031b583398181016040528101906200003791906200056b565b828281600390816200004a919062000846565b5080600490816200005c919062000846565b505050620000746000801b33620000ab60201b60201c565b620000a2336012600a62000089919062000ab0565b8362000096919062000b01565b620000c160201b60201c565b50505062000c38565b620000bd82826200022e60201b60201c565b5050565b600073ffffffffffffffffffffffffffffffffffffffff168273ffffffffffffffffffffffffffffffffffffffff160362000133576040517f08c379a00000000000000000000000000000000000000000000000000000000081526004016200012a9062000bad565b60405180910390fd5b62000147600083836200032060201b60201c565b80600260008282546200015b919062000bcf565b92505081905550806000808473ffffffffffffffffffffffffffffffffffffffff1673ffffffffffffffffffffffffffffffffffffffff168152602001908152602001600020600082825401925050819055508173ffffffffffffffffffffffffffffffffffffffff16600073ffffffffffffffffffffffffffffffffffffffff167fddf252ad1be2c89b69c2b068fc378daa952ba7f163c4a11628f55a4df523b3ef836040516200020e919062000c1b565b60405180910390a36200022a600083836200032560201b60201c565b5050565b6200024082826200032a60201b60201c565b6200031c5760016005600084815260200190815260200160002060000160008373ffffffffffffffffffffffffffffffffffffffff1673ffffffffffffffffffffffffffffffffffffffff16815260200190815260200160002060006101000a81548160ff021916908315150217905550620002c16200039560201b60201c565b73ffffffffffffffffffffffffffffffffffffffff168173ffffffffffffffffffffffffffffffffffffffff16837f2f8788117e7eff1d82e926ec794901d17c78024a50270940304540a733656f0d60405160405180910390a45b5050565b505050565b505050565b60006005600084815260200190815260200160002060000160008373ffffffffffffffffffffffffffffffffffffffff1673ffffffffffffffffffffffffffffffffffffffff16815260200190815260200160002060009054906101000a900460ff16905092915050565b600033905090565b6000604051905090565b600080fd5b600080fd5b600080fd5b600080fd5b6000601f19601f8301169050919050565b7f4e487b7100000000000000000000000000000000000000000000000000000000600052604160045260246000fd5b6200040682620003bb565b810181811067ffffffffffffffff82111715620004285762000427620003cc565b5b80604052505050565b60006200043d6200039d565b90506200044b8282620003fb565b919050565b600067ffffffffffffffff8211156200046e576200046d620003cc565b5b6200047982620003bb565b9050602081019050919050565b60005b83811015620004a657808201518184015260208101905062000489565b60008484015250505050565b6000620004c9620004c38462000450565b62000431565b905082815260208101848484011115620004e857620004e7620003b6565b5b620004f584828562000486565b509392505050565b600082601f830112620005155762000514620003b1565b5b815162000527848260208601620004b2565b91505092915050565b6000819050919050565b620005458162000530565b81146200055157600080fd5b50565b60008151905062000565816200053a565b92915050565b600080600060608486031215620005875762000586620003a7565b5b600084015167ffffffffffffffff811115620005a857620005a7620003ac565b5b620005b686828701620004fd565b935050602084015167ffffffffffffffff811115620005da57620005d9620003ac565b5b620005e886828701620004fd565b9250506040620005fb8682870162000554565b9150509250925092565b600081519050919050565b7f4e487b7100000000000000000000000000000000000000000000000000000000600052602260045260246000fd5b600060028204905060018216806200065857607f821691505b6020821081036200066e576200066d62000610565b5b50919050565b60008190508160005260206000209050919050565b60006020601f8301049050919050565b600082821b905092915050565b600060088302620006d87fffffffffffffffffffffffffffffffffffffffffffffffffffffffffffffffff8262000699565b620006e4868362000699565b95508019841693508086168417925050509392505050565b6000819050919050565b600062000727620007216200071b8462000530565b620006fc565b62000530565b9050919050565b6000819050919050565b620007438362000706565b6200075b62000752826200072e565b848454620006a6565b825550505050565b600090565b6200077262000763565b6200077f81848462000738565b505050565b5b81811015620007a7576200079b60008262000768565b60018101905062000785565b5050565b601f821115620007f657620007c08162000674565b620007cb8462000689565b81016020851015620007db578190505b620007f3620007ea8562000689565b83018262000784565b50505b505050565b600082821c905092915050565b60006200081b60001984600802620007fb565b1980831691505092915050565b600062000836838362000808565b9150826002028217905092915050565b620008518262000605565b67ffffffffffffffff8111156200086d576200086c620003cc565b5b6200087982546200063f565b62000886828285620007ab565b600060209050601f831160018114620008be5760008415620008a9578287015190505b620008b5858262000828565b86555062000925565b601f198416620008ce8662000674565b60005b82811015620008f857848901518255600182019150602085019450602081019050620008d1565b8683101562000918578489015162000914601f89168262000808565b8355505b6001600288020188555050505b505050505050565b7f4e487b7100000000000000000000000000000000000000000000000000000000600052601160045260246000fd5b60008160011c9050919050565b6000808291508390505b6001851115620009bb578086048111156200099357620009926200092d565b5b6001851615620009a35780820291505b8081029050620009b3856200095c565b945062000973565b94509492505050565b600082620009d6576001905062000aa9565b81620009e6576000905062000aa9565b8160018114620009ff576002811462000a0a5762000a40565b600191505062000aa9565b60ff84111562000a1f5762000a1e6200092d565b5b8360020a91508482111562000a395762000a386200092d565b5b5062000aa9565b5060208310610133831016604e8410600b841016171562000a7a5782820a90508381111562000a745762000a736200092d565b5b62000aa9565b62000a89848484600162000969565b9250905081840481111562000aa35762000aa26200092d565b5b81810290505b9392505050565b600062000abd8262000530565b915062000aca8362000530565b925062000af97fffffffffffffffffffffffffffffffffffffffffffffffffffffffffffffffff8484620009c4565b905092915050565b600062000b0e8262000530565b915062000b1b8362000530565b925082820262000b2b8162000530565b9150828204841483151762000b455762000b446200092d565b5b5092915050565b600082825260208201905092915050565b7f45524332303a206d696e7420746f20746865207a65726f206164647265737300600082015250565b600062000b95601f8362000b4c565b915062000ba28262000b5d565b602082019050919050565b6000602082019050818103600083015262000bc88162000b86565b9050919050565b600062000bdc8262000530565b915062000be98362000530565b925082820190508082111562000c045762000c036200092d565b5b92915050565b62000c158162000530565b82525050565b600060208201905062000c32600083018462000c0a565b92915050565b61256d8062000c486000396000f3fe608060405234801561001057600080fd5b50600436106101375760003560e01c806340c10f19116100b8578063a217fddf1161007c578063a217fddf14610374578063a457c2d714610392578063a9059cbb146103c2578063d547741f146103f2578063dd62ed3e1461040e578063f64682511461043e57610137565b806340c10f19146102be57806370a08231146102da57806391d148541461030a57806395d89b411461033a5780639dc29fac1461035857610137565b8063248a9ca3116100ff578063248a9ca3146102085780632f2ff15d14610238578063313ce5671461025457806336568abe14610272578063395093511461028e57610137565b806301ffc9a71461013c57806306fdde031461016c578063095ea7b31461018a57806318160ddd146101ba57806323b872dd146101d8575b600080fd5b610156600480360381019061015191906117f4565b61045c565b604051610163919061183c565b60405180910390f35b6101746104d6565b60405161018191906118e7565b60405180910390f35b6101a4600480360381019061019f919061199d565b610568565b6040516101b1919061183c565b60405180910390f35b6101c261058b565b6040516101cf91906119ec565b60405180910390f35b6101f260048036038101906101ed9190611a07565b610595565b6040516101ff919061183c565b60405180910390f35b610222600480360381019061021d9190611a90565b6105c4565b60405161022f9190611acc565b60405180910390f35b610252600480360381019061024d9190611ae7565b6105e4565b005b61025c610605565b6040516102699190611b43565b60405180910390f35b61028c60048036038101906102879190611ae7565b61060e565b005b6102a860048036038101906102a3919061199d565b610691565b6040516102b5919061183c565b60405180910390f35b6102d860048036038101906102d3919061199d565b6106c8565b005b6102f460048036038101906102ef9190611b5e565b61073f565b60405161030191906119ec565b60405180910390f35b610324600480360381019061031f9190611ae7565b610787565b604051610331919061183c565b60405180910390f35b6103426107f2565b60405161034f91906118e7565b60405180910390f35b610372600480360381019061036d919061199d565b610884565b005b61037c6108fb565b6040516103899190611acc565b60405180910390f35b6103ac60048036038101906103a7919061199d565b610902565b6040516103b9919061183c565b60405180910390f35b6103dc60048036038101906103d7919061199d565b610979565b6040516103e9919061183c565b60405180910390f35b61040c60048036038101906104079190611ae7565b61099c565b005b61042860048036038101906104239190611b8b565b6109bd565b60405161043591906119ec565b60405180910390f35b610446610a44565b6040516104539190611acc565b60405180910390f35b60007f7965db0b000000000000000000000000000000000000000000000000000000007bffffffffffffffffffffffffffffffffffffffffffffffffffffffff1916827bffffffffffffffffffffffffffffffffffffffffffffffffffffffff191614806104cf57506104ce82610a68565b5b9050919050565b6060600380546104e590611bfa565b80601f016020809104026020016040519081016040528092919081815260200182805461051190611bfa565b801561055e5780601f106105335761010080835404028352916020019161055e565b820191906000526020600020905b81548152906001019060200180831161054157829003601f168201915b5050505050905090565b600080610573610ad2565b9050610580818585610ada565b600191505092915050565b6000600254905090565b6000806105a0610ad2565b90506105ad858285610ca3565b6105b8858585610d2f565b60019150509392505050565b600060056000838152602001908152602001600020600101549050919050565b6105ed826105c4565b6105f681610fa5565b6106008383610fb9565b505050565b60006012905090565b610616610ad2565b73ffffffffffffffffffffffffffffffffffffffff168173ffffffffffffffffffffffffffffffffffffffff1614610683576040517f08c379a000000000000000000000000000000000000000000000000000000000815260040161067a90611c9d565b60405180910390fd5b61068d828261109a565b5050565b60008061069c610ad2565b90506106bd8185856106ae85896109bd565b6106b89190611cec565b610ada565b600191505092915050565b6106f27f0393b4c1b6519e8b53ae0efa1ab522060a3b9f8d86d09c8a22ca6d6eea735cf733610787565b610731576040517f08c379a000000000000000000000000000000000000000000000000000000000815260040161072890611d6c565b60405180910390fd5b61073b828261117c565b5050565b60008060008373ffffffffffffffffffffffffffffffffffffffff1673ffffffffffffffffffffffffffffffffffffffff168152602001908152602001600020549050919050565b60006005600084815260200190815260200160002060000160008373ffffffffffffffffffffffffffffffffffffffff1673ffffffffffffffffffffffffffffffffffffffff16815260200190815260200160002060009054906101000a900460ff16905092915050565b60606004805461080190611bfa565b80601f016020809104026020016040519081016040528092919081815260200182805461082d90611bfa565b801561087a5780601f1061084f5761010080835404028352916020019161087a565b820191906000526020600020905b81548152906001019060200180831161085d57829003601f168201915b5050505050905090565b6108ae7f0393b4c1b6519e8b53ae0efa1ab522060a3b9f8d86d09c8a22ca6d6eea735cf733610787565b6108ed576040517f08c379a00000000000000000000000000000000000000000000000000000000081526004016108e490611d6c565b60405180910390fd5b6108f782826112d2565b5050565b6000801b81565b60008061090d610ad2565b9050600061091b82866109bd565b905083811015610960576040517f08c379a000000000000000000000000000000000000000000000000000000000815260040161095790611dfe565b60405180910390fd5b61096d8286868403610ada565b60019250505092915050565b600080610984610ad2565b9050610991818585610d2f565b600191505092915050565b6109a5826105c4565b6109ae81610fa5565b6109b8838361109a565b505050565b6000600160008473ffffffffffffffffffffffffffffffffffffffff1673ffffffffffffffffffffffffffffffffffffffff16815260200190815260200160002060008373ffffffffffffffffffffffffffffffffffffffff1673ffffffffffffffffffffffffffffffffffffffff16815260200190815260200160002054905092915050565b7f0393b4c1b6519e8b53ae0efa1ab522060a3b9f8d86d09c8a22ca6d6eea735cf781565b60007f01ffc9a7000000000000000000000000000000000000000000000000000000007bffffffffffffffffffffffffffffffffffffffffffffffffffffffff1916827bffffffffffffffffffffffffffffffffffffffffffffffffffffffff1916149050919050565b600033905090565b600073ffffffffffffffffffffffffffffffffffffffff168373ffffffffffffffffffffffffffffffffffffffff1603610b49576040517f08c379a0000000000000000000000000000000000000000000000000000000008152600401610b4090611e90565b60405180910390fd5b600073ffffffffffffffffffffffffffffffffffffffff168273ffffffffffffffffffffffffffffffffffffffff1603610bb8576040517f08c379a0000000000000000000000000000000000000000000000000000000008152600401610baf90611f22565b60405180910390fd5b80600160008573ffffffffffffffffffffffffffffffffffffffff1673ffffffffffffffffffffffffffffffffffffffff16815260200190815260200160002060008473ffffffffffffffffffffffffffffffffffffffff1673ffffffffffffffffffffffffffffffffffffffff168152602001908152602001600020819055508173ffffffffffffffffffffffffffffffffffffffff168373ffffffffffffffffffffffffffffffffffffffff167f8c5be1e5ebec7d5bd14f71427d1e84f3dd0314c0f7b2291e5b200ac8c7c3b92583604051610c9691906119ec565b60405180910390a3505050565b6000610caf84846109bd565b90507fffffffffffffffffffffffffffffffffffffffffffffffffffffffffffffffff8114610d295781811015610d1b576040517f08c379a0000000000000000000000000000000000000000000000000000000008152600401610d1290611f8e565b60405180910390fd5b610d288484848403610ada565b5b50505050565b600073ffffffffffffffffffffffffffffffffffffffff168373ffffffffffffffffffffffffffffffffffffffff1603610d9e576040517f08c379a0000000000000000000000000000000000000000000000000000000008152600401610d9590612020565b60405180910390fd5b600073ffffffffffffffffffffffffffffffffffffffff168273ffffffffffffffffffffffffffffffffffffffff1603610e0d576040517f08c379a0000000000000000000000000000000000000000000000000000000008152600401610e04906120b2565b60405180910390fd5b610e1883838361149f565b60008060008573ffffffffffffffffffffffffffffffffffffffff1673ffffffffffffffffffffffffffffffffffffffff16815260200190815260200160002054905081811015610e9e576040517f08c379a0000000000000000000000000000000000000000000000000000000008152600401610e9590612144565b60405180910390fd5b8181036000808673ffffffffffffffffffffffffffffffffffffffff1673ffffffffffffffffffffffffffffffffffffffff16815260200190815260200160002081905550816000808573ffffffffffffffffffffffffffffffffffffffff1673ffffffffffffffffffffffffffffffffffffffff168152602001908152602001600020600082825401925050819055508273ffffffffffffffffffffffffffffffffffffffff168473ffffffffffffffffffffffffffffffffffffffff167fddf252ad1be2c89b69c2b068fc378daa952ba7f163c4a11628f55a4df523b3ef84604051610f8c91906119ec565b60405180910390a3610f9f8484846114a4565b50505050565b610fb681610fb1610ad2565b6114a9565b50565b610fc38282610787565b6110965760016005600084815260200190815260200160002060000160008373ffffffffffffffffffffffffffffffffffffffff1673ffffffffffffffffffffffffffffffffffffffff16815260200190815260200160002060006101000a81548160ff02191690831515021790555061103b610ad2565b73ffffffffffffffffffffffffffffffffffffffff168173ffffffffffffffffffffffffffffffffffffffff16837f2f8788117e7eff1d82e926ec794901d17c78024a50270940304540a733656f0d60405160405180910390a45b5050565b6110a48282610787565b156111785760006005600084815260200190815260200160002060000160008373ffffffffffffffffffffffffffffffffffffffff1673ffffffffffffffffffffffffffffffffffffffff16815260200190815260200160002060006101000a81548160ff02191690831515021790555061111d610ad2565b73ffffffffffffffffffffffffffffffffffffffff168173ffffffffffffffffffffffffffffffffffffffff16837ff6391f5c32d9c69d2a47ea670b442974b53935d1edc7fd64eb21e047a839171b60405160405180910390a45b5050565b600073ffffffffffffffffffffffffffffffffffffffff168273ffffffffffffffffffffffffffffffffffffffff16036111eb576040517f08c379a00000000000000000000000000000000000000000000000000000000081526004016111e2906121b0565b60405180910390fd5b6111f76000838361149f565b80600260008282546112099190611cec565b92505081905550806000808473ffffffffffffffffffffffffffffffffffffffff1673ffffffffffffffffffffffffffffffffffffffff168152602001908152602001600020600082825401925050819055508173ffffffffffffffffffffffffffffffffffffffff16600073ffffffffffffffffffffffffffffffffffffffff167fddf252ad1be2c89b69c2b068fc378daa952ba7f163c4a11628f55a4df523b3ef836040516112ba91906119ec565b60405180910390a36112ce600083836114a4565b5050565b600073ffffffffffffffffffffffffffffffffffffffff168273ffffffffffffffffffffffffffffffffffffffff1603611341576040517f08c379a000000000000000000000000000000000000000000000000000000000815260040161133890612242565b60405180910390fd5b61134d8260008361149f565b60008060008473ffffffffffffffffffffffffffffffffffffffff1673ffffffffffffffffffffffffffffffffffffffff168152602001908152602001600020549050818110156113d3576040517f08c379a00000000000000000000000000000000000000000000000000000000081526004016113ca906122d4565b60405180910390fd5b8181036000808573ffffffffffffffffffffffffffffffffffffffff1673ffffffffffffffffffffffffffffffffffffffff1681526020019081526020016000208190555081600260008282540392505081905550600073ffffffffffffffffffffffffffffffffffffffff168373ffffffffffffffffffffffffffffffffffffffff167fddf252ad1be2c89b69c2b068fc378daa952ba7f163c4a11628f55a4df523b3ef8460405161148691906119ec565b60405180910390a361149a836000846114a4565b505050565b505050565b505050565b6114b38282610787565b61152a576114c08161152e565b6114ce8360001c602061155b565b6040516020016114df9291906123c8565b6040516020818303038152906040526040517f08c379a000000000000000000000000000000000000000000000000000000000815260040161152191906118e7565b60405180910390fd5b5050565b60606115548273ffffffffffffffffffffffffffffffffffffffff16601460ff1661155b565b9050919050565b60606000600283600261156e9190612402565b6115789190611cec565b67ffffffffffffffff81111561159157611590612444565b5b6040519080825280601f01601f1916602001820160405280156115c35781602001600182028036833780820191505090505b5090507f3000000000000000000000000000000000000000000000000000000000000000816000815181106115fb576115fa612473565b5b60200101907effffffffffffffffffffffffffffffffffffffffffffffffffffffffffffff1916908160001a9053507f78000000000000000000000000000000000000000000000000000000000000008160018151811061165f5761165e612473565b5b60200101907effffffffffffffffffffffffffffffffffffffffffffffffffffffffffffff1916908160001a9053506000600184600261169f9190612402565b6116a99190611cec565b90505b6001811115611749577f3031323334353637383961626364656600000000000000000000000000000000600f8616601081106116eb576116ea612473565b5b1a60f81b82828151811061170257611701612473565b5b60200101907effffffffffffffffffffffffffffffffffffffffffffffffffffffffffffff1916908160001a905350600485901c945080611742906124a2565b90506116ac565b506000841461178d576040517f08c379a000000000000000000000000000000000000000000000000000000000815260040161178490612517565b60405180910390fd5b8091505092915050565b600080fd5b60007fffffffff0000000000000000000000000000000000000000000000000000000082169050919050565b6117d18161179c565b81146117dc57600080fd5b50565b6000813590506117ee816117c8565b92915050565b60006020828403121561180a57611809611797565b5b6000611818848285016117df565b91505092915050565b60008115159050919050565b61183681611821565b82525050565b6000602082019050611851600083018461182d565b92915050565b600081519050919050565b600082825260208201905092915050565b60005b83811015611891578082015181840152602081019050611876565b60008484015250505050565b6000601f19601f8301169050919050565b60006118b982611857565b6118c38185611862565b93506118d3818560208601611873565b6118dc8161189d565b840191505092915050565b6000602082019050818103600083015261190181846118ae565b905092915050565b600073ffffffffffffffffffffffffffffffffffffffff82169050919050565b600061193482611909565b9050919050565b61194481611929565b811461194f57600080fd5b50565b6000813590506119618161193b565b92915050565b6000819050919050565b61197a81611967565b811461198557600080fd5b50565b60008135905061199781611971565b92915050565b600080604083850312156119b4576119b3611797565b5b60006119c285828601611952565b92505060206119d385828601611988565b9150509250929050565b6119e681611967565b82525050565b6000602082019050611a0160008301846119dd565b92915050565b600080600060608486031215611a2057611a1f611797565b5b6000611a2e86828701611952565b9350506020611a3f86828701611952565b9250506040611a5086828701611988565b9150509250925092565b6000819050919050565b611a6d81611a5a565b8114611a7857600080fd5b50565b600081359050611a8a81611a64565b92915050565b600060208284031215611aa657611aa5611797565b5b6000611ab484828501611a7b565b91505092915050565b611ac681611a5a565b82525050565b6000602082019050611ae16000830184611abd565b92915050565b60008060408385031215611afe57611afd611797565b5b6000611b0c85828601611a7b565b9250506020611b1d85828601611952565b9150509250929050565b600060ff82169050919050565b611b3d81611b27565b82525050565b6000602082019050611b586000830184611b34565b92915050565b600060208284031215611b7457611b73611797565b5b6000611b8284828501611952565b91505092915050565b60008060408385031215611ba257611ba1611797565b5b6000611bb085828601611952565b9250506020611bc185828601611952565b9150509250929050565b7f4e487b7100000000000000000000000000000000000000000000000000000000600052602260045260246000fd5b60006002820490506001821680611c1257607f821691505b602082108103611c2557611c24611bcb565b5b50919050565b7f416363657373436f6e74726f6c3a2063616e206f6e6c792072656e6f756e636560008201527f20726f6c657320666f722073656c660000000000000000000000000000000000602082015250565b6000611c87602f83611862565b9150611c9282611c2b565b604082019050919050565b60006020820190508181036000830152611cb681611c7a565b9050919050565b7f4e487b7100000000000000000000000000000000000000000000000000000000600052601160045260246000fd5b6000611cf782611967565b9150611d0283611967565b9250828201905080821115611d1a57611d19611cbd565b5b92915050565b7f6e6f7420617574686f72697a6564000000000000000000000000000000000000600082015250565b6000611d56600e83611862565b9150611d6182611d20565b602082019050919050565b60006020820190508181036000830152611d8581611d49565b9050919050565b7f45524332303a2064656372656173656420616c6c6f77616e63652062656c6f7760008201527f207a65726f000000000000000000000000000000000000000000000000000000602082015250565b6000611de8602583611862565b9150611df382611d8c565b604082019050919050565b60006020820190508181036000830152611e1781611ddb565b9050919050565b7f45524332303a20617070726f76652066726f6d20746865207a65726f2061646460008201527f7265737300000000000000000000000000000000000000000000000000000000602082015250565b6000611e7a602483611862565b9150611e8582611e1e565b604082019050919050565b60006020820190508181036000830152611ea981611e6d565b9050919050565b7f45524332303a20617070726f766520746f20746865207a65726f20616464726560008201527f7373000000000000000000000000000000000000000000000000000000000000602082015250565b6000611f0c602283611862565b9150611f1782611eb0565b604082019050919050565b60006020820190508181036000830152611f3b81611eff565b9050919050565b7f45524332303a20696e73756666696369656e7420616c6c6f77616e6365000000600082015250565b6000611f78601d83611862565b9150611f8382611f42565b602082019050919050565b60006020820190508181036000830152611fa781611f6b565b9050919050565b7f45524332303a207472616e736665722066726f6d20746865207a65726f20616460008201527f6472657373000000000000000000000000000000000000000000000000000000602082015250565b600061200a602583611862565b915061201582611fae565b604082019050919050565b6000602082019050818103600083015261203981611ffd565b9050919050565b7f45524332303a207472616e7366657220746f20746865207a65726f206164647260008201527f6573730000000000000000000000000000000000000000000000000000000000602082015250565b600061209c602383611862565b91506120a782612040565b604082019050919050565b600060208201905081810360008301526120cb8161208f565b9050919050565b7f45524332303a207472616e7366657220616d6f756e742065786365656473206260008201527f616c616e63650000000000000000000000000000000000000000000000000000602082015250565b600061212e602683611862565b9150612139826120d2565b604082019050919050565b6000602082019050818103600083015261215d81612121565b9050919050565b7f45524332303a206d696e7420746f20746865207a65726f206164647265737300600082015250565b600061219a601f83611862565b91506121a582612164565b602082019050919050565b600060208201905081810360008301526121c98161218d565b9050919050565b7f45524332303a206275726e2066726f6d20746865207a65726f2061646472657360008201527f7300000000000000000000000000000000000000000000000000000000000000602082015250565b600061222c602183611862565b9150612237826121d0565b604082019050919050565b6000602082019050818103600083015261225b8161221f565b9050919050565b7f45524332303a206275726e20616d6f756e7420657863656564732062616c616e60008201527f6365000000000000000000000000000000000000000000000000000000000000602082015250565b60006122be602283611862565b91506122c982612262565b604082019050919050565b600060208201905081810360008301526122ed816122b1565b9050919050565b600081905092915050565b7f416363657373436f6e74726f6c3a206163636f756e7420000000000000000000600082015250565b60006123356017836122f4565b9150612340826122ff565b601782019050919050565b600061235682611857565b61236081856122f4565b9350612370818560208601611873565b80840191505092915050565b7f206973206d697373696e6720726f6c6520000000000000000000000000000000600082015250565b60006123b26011836122f4565b91506123bd8261237c565b601182019050919050565b60006123d382612328565b91506123df828561234b565b91506123ea826123a5565b91506123f6828461234b565b91508190509392505050565b600061240d82611967565b915061241883611967565b925082820261242681611967565b9150828204841483151761243d5761243c611cbd565b5b5092915050565b7f4e487b7100000000000000000000000000000000000000000000000000000000600052604160045260246000fd5b7f4e487b7100000000000000000000000000000000000000000000000000000000600052603260045260246000fd5b60006124ad82611967565b9150600082036124c0576124bf611cbd565b5b600182039050919050565b7f537472696e67733a20686578206c656e67746820696e73756666696369656e74600082015250565b6000612501602083611862565b915061250c826124cb565b602082019050919050565b60006020820190508181036000830152612530816124f4565b905091905056fea26469706673582212202282aac10a5c51b1dac1582a8c08188ae14fb81c4b9c6f89ca175c5d57420a9464736f6c63430008110033",
    "linkReferences": {},
    "deployedLinkReferences": {}
}